{
  "_format": "hh-sol-artifact-1",
  "contractName": "MeetingContract",
  "sourceName": "contracts/meetingDetailsPayment.sol",
  "abi": [
    {
      "anonymous": false,
      "inputs": [
        {
          "indexed": false,
          "internalType": "string",
          "name": "roomId",
          "type": "string"
        },
        {
          "indexed": false,
          "internalType": "address",
          "name": "hostWalletAddress",
          "type": "address"
        },
        {
          "indexed": false,
          "internalType": "address",
          "name": "participantAddress",
          "type": "address"
        },
        {
          "indexed": false,
          "internalType": "uint256",
          "name": "startTime",
          "type": "uint256"
        },
        {
          "indexed": false,
          "internalType": "uint256",
          "name": "amount",
          "type": "uint256"
        }
      ],
      "name": "MeetingScheduled",
      "type": "event"
    },
    {
      "inputs": [
        {
          "internalType": "string",
          "name": "",
          "type": "string"
        }
      ],
      "name": "meetings",
      "outputs": [
        {
          "internalType": "address",
          "name": "hostWalletAddress",
          "type": "address"
        },
        {
          "internalType": "address",
          "name": "participantAddress",
          "type": "address"
        },
        {
          "internalType": "uint256",
          "name": "startTime",
          "type": "uint256"
        },
        {
          "internalType": "uint256",
          "name": "amount",
          "type": "uint256"
        },
        {
          "internalType": "string",
          "name": "roomId",
          "type": "string"
        },
        {
          "internalType": "bool",
          "name": "isCompleted",
          "type": "bool"
        }
      ],
      "stateMutability": "view",
      "type": "function"
    },
    {
      "inputs": [
        {
          "internalType": "address",
          "name": "_hostWalletAddress",
          "type": "address"
        },
        {
          "internalType": "address",
          "name": "_participantAddress",
          "type": "address"
        },
        {
          "internalType": "uint256",
          "name": "_startTime",
          "type": "uint256"
        },
        {
          "internalType": "uint256",
          "name": "_amount",
          "type": "uint256"
        },
        {
          "internalType": "string",
          "name": "roomId",
          "type": "string"
        }
      ],
      "name": "scheduleMeeting",
      "outputs": [],
      "stateMutability": "payable",
      "type": "function"
    },
    {
      "inputs": [
        {
          "internalType": "string",
          "name": "_roomId",
          "type": "string"
        },
        {
          "internalType": "uint256",
          "name": "duration",
          "type": "uint256"
        }
      ],
      "name": "transferCheck",
      "outputs": [],
      "stateMutability": "nonpayable",
      "type": "function"
    }
  ],
  "bytecode": "0x608060405234801561001057600080fd5b5061130b806100206000396000f3fe6080604052600436106100345760003560e01c806338cebff31461003957806358bd26781461006257806389104f561461007e575b600080fd5b34801561004557600080fd5b50610060600480360381019061005b9190610930565b6100c0565b005b61007c600480360381019061007791906109ea565b6101f9565b005b34801561008a57600080fd5b506100a560048036038101906100a09190610a81565b610539565b6040516100b796959493929190610b82565b60405180910390f35b60016000836040516100d29190610c26565b908152602001604051809103902060050160006101000a81548160ff021916908315150217905550600081111561017e57600080836040516101149190610c26565b908152602001604051809103902060000160009054906101000a900473ffffffffffffffffffffffffffffffffffffffff169050600080846040516101599190610c26565b90815260200160405180910390206003015490506101778282610660565b50506101f5565b6000808360405161018f9190610c26565b908152602001604051809103902060010160009054906101000a900473ffffffffffffffffffffffffffffffffffffffff169050600080846040516101d49190610c26565b90815260200160405180910390206003015490506101f28282610660565b50505b5050565b600073ffffffffffffffffffffffffffffffffffffffff168573ffffffffffffffffffffffffffffffffffffffff1603610268576040517f08c379a000000000000000000000000000000000000000000000000000000000815260040161025f90610c89565b60405180910390fd5b600073ffffffffffffffffffffffffffffffffffffffff168473ffffffffffffffffffffffffffffffffffffffff16036102d7576040517f08c379a00000000000000000000000000000000000000000000000000000000081526004016102ce90610cf5565b60405180910390fd5b428311610319576040517f08c379a000000000000000000000000000000000000000000000000000000000815260040161031090610d61565b60405180910390fd5b6000821161035c576040517f08c379a000000000000000000000000000000000000000000000000000000000815260040161035390610dcd565b60405180910390fd5b81341461039e576040517f08c379a000000000000000000000000000000000000000000000000000000000815260040161039590610e39565b60405180910390fd5b6040518060c001604052808673ffffffffffffffffffffffffffffffffffffffff1681526020018573ffffffffffffffffffffffffffffffffffffffff1681526020018481526020013481526020018281526020016000151581525060008260405161040a9190610c26565b908152602001604051809103902060008201518160000160006101000a81548173ffffffffffffffffffffffffffffffffffffffff021916908373ffffffffffffffffffffffffffffffffffffffff16021790555060208201518160010160006101000a81548173ffffffffffffffffffffffffffffffffffffffff021916908373ffffffffffffffffffffffffffffffffffffffff160217905550604082015181600201556060820151816003015560808201518160040190816104cf9190611065565b5060a08201518160050160006101000a81548160ff0219169083151502179055509050507fcbc9fe451e9f5bba3572b4a0d8cf78318b544236bfc5cc730824ece8d344e09b818686863460405161052a959493929190611137565b60405180910390a15050505050565b6000818051602081018201805184825260208301602085012081835280955050505050506000915090508060000160009054906101000a900473ffffffffffffffffffffffffffffffffffffffff16908060010160009054906101000a900473ffffffffffffffffffffffffffffffffffffffff16908060020154908060030154908060040180546105ca90610e88565b80601f01602080910402602001604051908101604052809291908181526020018280546105f690610e88565b80156106435780601f1061061857610100808354040283529160200191610643565b820191906000526020600020905b81548152906001019060200180831161062657829003601f168201915b5050505050908060050160009054906101000a900460ff16905086565b600073ffffffffffffffffffffffffffffffffffffffff168273ffffffffffffffffffffffffffffffffffffffff16036106cf576040517f08c379a00000000000000000000000000000000000000000000000000000000081526004016106c6906111dd565b60405180910390fd5b60008111610712576040517f08c379a000000000000000000000000000000000000000000000000000000000815260040161070990611249565b60405180910390fd5b80471015610755576040517f08c379a000000000000000000000000000000000000000000000000000000000815260040161074c906112b5565b60405180910390fd5b8173ffffffffffffffffffffffffffffffffffffffff166108fc829081150290604051600060405180830381858888f1935050505015801561079b573d6000803e3d6000fd5b505050565b6000604051905090565b600080fd5b600080fd5b600080fd5b600080fd5b6000601f19601f8301169050919050565b7f4e487b7100000000000000000000000000000000000000000000000000000000600052604160045260246000fd5b610807826107be565b810181811067ffffffffffffffff82111715610826576108256107cf565b5b80604052505050565b60006108396107a0565b905061084582826107fe565b919050565b600067ffffffffffffffff821115610865576108646107cf565b5b61086e826107be565b9050602081019050919050565b82818337600083830152505050565b600061089d6108988461084a565b61082f565b9050828152602081018484840111156108b9576108b86107b9565b5b6108c484828561087b565b509392505050565b600082601f8301126108e1576108e06107b4565b5b81356108f184826020860161088a565b91505092915050565b6000819050919050565b61090d816108fa565b811461091857600080fd5b50565b60008135905061092a81610904565b92915050565b60008060408385031215610947576109466107aa565b5b600083013567ffffffffffffffff811115610965576109646107af565b5b610971858286016108cc565b92505060206109828582860161091b565b9150509250929050565b600073ffffffffffffffffffffffffffffffffffffffff82169050919050565b60006109b78261098c565b9050919050565b6109c7816109ac565b81146109d257600080fd5b50565b6000813590506109e4816109be565b92915050565b600080600080600060a08688031215610a0657610a056107aa565b5b6000610a14888289016109d5565b9550506020610a25888289016109d5565b9450506040610a368882890161091b565b9350506060610a478882890161091b565b925050608086013567ffffffffffffffff811115610a6857610a676107af565b5b610a74888289016108cc565b9150509295509295909350565b600060208284031215610a9757610a966107aa565b5b600082013567ffffffffffffffff811115610ab557610ab46107af565b5b610ac1848285016108cc565b91505092915050565b610ad3816109ac565b82525050565b610ae2816108fa565b82525050565b600081519050919050565b600082825260208201905092915050565b60005b83811015610b22578082015181840152602081019050610b07565b60008484015250505050565b6000610b3982610ae8565b610b438185610af3565b9350610b53818560208601610b04565b610b5c816107be565b840191505092915050565b60008115159050919050565b610b7c81610b67565b82525050565b600060c082019050610b976000830189610aca565b610ba46020830188610aca565b610bb16040830187610ad9565b610bbe6060830186610ad9565b8181036080830152610bd08185610b2e565b9050610bdf60a0830184610b73565b979650505050505050565b600081905092915050565b6000610c0082610ae8565b610c0a8185610bea565b9350610c1a818560208601610b04565b80840191505092915050565b6000610c328284610bf5565b915081905092915050565b7f496e76616c696420686f73742077616c6c657420616464726573730000000000600082015250565b6000610c73601b83610af3565b9150610c7e82610c3d565b602082019050919050565b60006020820190508181036000830152610ca281610c66565b9050919050565b7f496e76616c6964207061727469636970616e7420616464726573730000000000600082015250565b6000610cdf601b83610af3565b9150610cea82610ca9565b602082019050919050565b60006020820190508181036000830152610d0e81610cd2565b9050919050565b7f496e76616c69642073746172742074696d650000000000000000000000000000600082015250565b6000610d4b601283610af3565b9150610d5682610d15565b602082019050919050565b60006020820190508181036000830152610d7a81610d3e565b9050919050565b7f496e76616c6964206665657320616d6f756e7400000000000000000000000000600082015250565b6000610db7601383610af3565b9150610dc282610d81565b602082019050919050565b60006020820190508181036000830152610de681610daa565b9050919050565b7f496e636f7272656374207061796d656e7420616d6f756e740000000000000000600082015250565b6000610e23601883610af3565b9150610e2e82610ded565b602082019050919050565b60006020820190508181036000830152610e5281610e16565b9050919050565b7f4e487b7100000000000000000000000000000000000000000000000000000000600052602260045260246000fd5b60006002820490506001821680610ea057607f821691505b602082108103610eb357610eb2610e59565b5b50919050565b60008190508160005260206000209050919050565b60006020601f8301049050919050565b600082821b905092915050565b600060088302610f1b7fffffffffffffffffffffffffffffffffffffffffffffffffffffffffffffffff82610ede565b610f258683610ede565b95508019841693508086168417925050509392505050565b6000819050919050565b6000610f62610f5d610f58846108fa565b610f3d565b6108fa565b9050919050565b6000819050919050565b610f7c83610f47565b610f90610f8882610f69565b848454610eeb565b825550505050565b600090565b610fa5610f98565b610fb0818484610f73565b505050565b5b81811015610fd457610fc9600082610f9d565b600181019050610fb6565b5050565b601f82111561101957610fea81610eb9565b610ff384610ece565b81016020851015611002578190505b61101661100e85610ece565b830182610fb5565b50505b505050565b600082821c905092915050565b600061103c6000198460080261101e565b1980831691505092915050565b6000611055838361102b565b9150826002028217905092915050565b61106e82610ae8565b67ffffffffffffffff811115611087576110866107cf565b5b6110918254610e88565b61109c828285610fd8565b600060209050601f8311600181146110cf57600084156110bd578287015190505b6110c78582611049565b86555061112f565b601f1984166110dd86610eb9565b60005b82811015611105578489015182556001820191506020850194506020810190506110e0565b86831015611122578489015161111e601f89168261102b565b8355505b6001600288020188555050505b505050505050565b600060a08201905081810360008301526111518188610b2e565b90506111606020830187610aca565b61116d6040830186610aca565b61117a6060830185610ad9565b6111876080830184610ad9565b9695505050505050565b7f496e76616c696420726563697069656e74206164647265737300000000000000600082015250565b60006111c7601983610af3565b91506111d282611191565b602082019050919050565b600060208201905081810360008301526111f6816111ba565b9050919050565b7f496e76616c6964207472616e7366657220616d6f756e74000000000000000000600082015250565b6000611233601783610af3565b915061123e826111fd565b602082019050919050565b6000602082019050818103600083015261126281611226565b9050919050565b7f496e73756666696369656e742066756e64730000000000000000000000000000600082015250565b600061129f601283610af3565b91506112aa82611269565b602082019050919050565b600060208201905081810360008301526112ce81611292565b905091905056fea264697066735822122035ce57dc2e9afc7c20c844b72868e0a1ebbf965ff86cc56a7793e9a0ae5a326b64736f6c63430008170033",
  "linkReferences": {},
  "deployedLinkReferences": {}
}